:020000040800F2
:1000000088060020B5010008BD010008BF010008F6
:10001000C1010008C3010008C5010008000000007C
:10002000000000000000000000000000C701000800
:10003000C901000800000000CB010008CD01000844
:10004000CF010008CF010008CF010008CF01000850
:10005000CF010008CF010008CF010008CF01000840
:10006000CF010008CF010008CF0100087902000885
:10007000A9020008D9020008090300083903000892
:100080006903000899030008CF010008CF010008A8
:10009000CF010008CF010008CF010008CF01000800
:1000A000CF010008CF010008CF010008CF010008F0
:1000B000CF010008CF010008CF010008290900087E
:1000C00019090008CF010008CF010008CF0100087E
:1000D000CF010008CF010008CF010008CF010008C0
:1000E000CF010008CF010008CF01000800F002F89E
:1000F00000F050F814A696E8000CB244B344DA4578
:1001000001D100F047F8BAE80F000FA696E83000DA
:10011000A5EB040504EB0607AAEB0704A7F101070A
:100120004FEA15154FEA3414A4F10104AC4201D38F
:1001300000F030F813F0010F18BFFB1A43F0010371
:1001400000F001F8DBE71847A8200000C8200000F5
:10015000103A24BF78C878C1FAD8520724BF30C8F3
:1001600030C144BF04680C60704700007047000055
:100170000023002400250026103A28BF78C1FBD8B0
:10018000520728BF30C148BF0B6070471FB51FBD65
:1001900010B510BD00F031F81146FFF7F7FF01F080
:1001A000A5FF00F04FF803B4FFF7F2FF03BC00F027
:1001B00057F800000948804709480047FEE7FEE776
:1001C000FEE7FEE7FEE7FEE7FEE7FEE7FEE7FEE707
:1001D00004480549054A064B70470000B91F00084E
:1001E000ED0000088800002088060020880200201A
:1001F00088020020704770477047754600F02CF861
:10020000AE4605006946534620F00700854618B003
:1002100020B5FFF7DDFFBDE820404FF000064FF0AE
:1002200000074FF000084FF0000BAC46ACE8C009E7
:10023000ACE8C009ACE8C009ACE8C00921F007018E
:100240008D46704710B50446AFF300802046BDE8E8
:100250001040FFF7A8BF00000048704708000020CA
:1002600001491820ABBEFEE72600020070470000DF
:1002700081B0009001B0704780B582B00020C4F218
:100280000200006800F00F00019001980421C4F200
:10029000020108600198FFF7EBFF02B080BD00008B
:1002A00081B0009001B0704780B582B00020C4F2E8
:1002B00002000068C0F303100190019800010421BE
:1002C000C4F2020108600198FFF7EAFF02B080BDA6
:1002D00081B0009001B0704780B582B00020C4F2B8
:1002E00002000068C0F3032001900198000204217D
:1002F000C4F2020108600198FFF7EAFF02B080BD76
:1003000081B0009001B0704780B582B00020C4F287
:1003100002000068C0F3033001900198000304213B
:10032000C4F2020108600198FFF7EAFF02B080BD45
:1003300081B0009001B0704780B582B00020C4F257
:1003400002000068C0F303400190019800040421FA
:10035000C4F2020108600198FFF7EAFF02B080BD15
:1003600081B0009001B0704780B582B00020C4F227
:1003700002000068C0F303500190019800050421B9
:10038000C4F2020108600198FFF7EAFF02B080BDE5
:1003900081B0009001B0704780B582B00020C4F2F7
:1003A00002000068C0F30360019001980006042178
:1003B000C4F2020108600198FFF7EAFF02B080BDB5
:1003C00084B0ADF80E00BDF80E00002868D0FFE73D
:1003D000BDF80E00C0F3421002909DF80F0000F02F
:1003E0000F00019041F21800C4F202000068C0073B
:1003F00048B9FFE741F21801C4F20201086840F071
:1004000001000860FFE7BDF80E00C00400281CD5FD
:10041000FFE71C21C4F20101086800900298BDF8B2
:100420000E2002F01F0200FA02F2009890430090A2
:100430000198BDF80E2002F01F0200FA02F20098A7
:10044000104300900098086029E00421C4F20101E3
:10045000086800900298BDF80E2002F01F0200FA12
:1004600002F20098904300900198BDF80E2002F02F
:100470001F0200FA02F20098104300900720029039
:1004800000200190029A009820EA02600090019AF0
:10049000009840EA0260009000980860FFE7FFE7DC
:1004A00004B0704782B00090009840F60001C4F29A
:1004B000010188420AD1FFE741F21800C4F20200AC
:1004C0000068C0F380008DF8070075E0009840F6E2
:1004D0000041C4F2010188420AD1FFE741F218004D
:1004E000C4F202000068C0F3C0008DF8070063E0AA
:1004F000009841F20001C4F2010188420AD1FFE7ED
:1005000041F21800C4F202000068C0F300108DF838
:10051000070051E0009841F20041C4F20101884215
:100520000AD1FFE741F21800C4F202000068C0F3EC
:1005300040108DF807003FE0009841F60001C4F23A
:10054000010188420AD1FFE741F21800C4F202001B
:100550000068C0F380108DF807002DE0009841F688
:100560000041C4F2010188420AD1FFE741F21800BC
:10057000C4F202000068C0F3C0108DF807001BE051
:10058000009842F20001C4F2010188420AD1FFE75B
:1005900041F21800C4F202000068C0F300208DF898
:1005A000070009E0FFE7FFE7FFE7FFE7FFE7FFE7F7
:1005B00000208DF80700FFE79DF8070002B07047A4
:1005C00080B586B0049003918DF80B208DF80A3029
:1005D0000398102804D3FFE700208DF817005AE095
:1005E0000498FFF75FFF28B9FFE70498012100F0A6
:1005F0007DF8FFE79DF80A0020BBFFE79DF80B00A0
:10060000022809D1FFE70399012000FA01F20499B9
:10061000C8689043C86014E09DF80B0003280FD110
:10062000FFE79DF80B0000F0FE008DF80B0003992A
:10063000012000FA01F20499C8681043C860FFE77E
:10064000FFE7FFE70398072803D8FFE70498019026
:1006500006E0039808380390049804300190FFE7FF
:10066000039881000F2000FA01F201990868904375
:1006700008609DF80B109DF80A0040EA810003997C
:10068000890000FA01F2019908681043086001200E
:100690008DF81700FFE79DF8170006B080BD000039
:1006A00082B001900091019880680099C84000F0E4
:1006B000010002B07047000083B0029001910092E7
:1006C0009DF80000C00730B1FFE701990120884084
:1006D0000299086107E0019800F1100101208840AB
:1006E00002990861FFE703B07047000082B00190F3
:1006F0008DF803109DF80300C00700287ED0FFE7A7
:10070000019840F60001C4F20101884209D1FFE7D7
:1007100041F21801C4F20201086840F004000860C8
:100720006BE0019840F60041C4F20101884209D112
:10073000FFE741F21801C4F20201086840F0080026
:10074000086059E0019841F20001C4F201018842B9
:1007500009D1FFE741F21801C4F20201086840F034
:100760001000086047E0019841F20041C4F2010125
:10077000884209D1FFE741F21801C4F2020108687A
:1007800040F02000086035E0019841F60001C4F215
:100790000101884209D1FFE741F21801C4F20201C8
:1007A000086840F04000086023E0019841F60041ED
:1007B000C4F20101884209D1FFE741F21801C4F2F5
:1007C0000201086840F08000086011E0019842F2E0
:1007D0000001C4F20101884209D1FFE741F218018A
:1007E000C4F20201086840F480700860FFE7FFE788
:1007F000FFE7FFE7FFE7FFE7FFE77DE0019840F64F
:100800000001C4F20101884209D1FFE741F2180159
:10081000C4F20201086820F0040008606BE001984F
:1008200040F60041C4F20101884209D1FFE741F2DC
:100830001801C4F20201086820F00800086059E0BD
:10084000019841F20001C4F20101884209D1FFE799
:1008500041F21801C4F20201086820F0100008609B
:1008600047E0019841F20041C4F20101884209D1F8
:10087000FFE741F21801C4F20201086820F02000ED
:10088000086035E0019841F60001C4F20101884298
:1008900009D1FFE741F21801C4F20201086820F013
:1008A0004000086023E0019841F60041C4F20101D4
:1008B000884209D1FFE741F21801C4F20201086839
:1008C00020F08000086011E0019842F20001C4F2BB
:1008D0000101884209D1FFE741F21801C4F2020187
:1008E000086820F480700860FFE7FFE7FFE7FFE794
:1008F000FFE7FFE7FFE7FFE702B0704780B582B090
:10090000019000910198009942F2C812C0F60002CD
:1009100000F0A8F802B080BD80B542F2C810C0F661
:10092000000000F0D5FA80BD80B542F2C810C0F6D4
:10093000000000F0A5FB80BD80B542F2C810C0F6F3
:10094000000000F075FF80BD80B582B042F2C81093
:10095000C0F6000000F088FF0190019802B080BD51
:1009600080B582B00190019842F2C811C0F6000132
:1009700000F084FF02B080BD80B586B00590049180
:1009800003928DF80B3005980499039A9DF80B306B
:1009900042F2C81CC0F6000CEE46CEF800C003F0D0
:1009A000010300F0AFFF06B080BD000080B586B047
:1009B0000590049103928DF80B3005980499039AE1
:1009C0009DF80B3042F2C81CC0F6000CEE46CEF883
:1009D00000C003F0010301F029F806B080BD00005B
:1009E00080B582B08DF807009DF8070042F2C8116B
:1009F000C0F6000101F0A8F802B080BD80B582B059
:100A0000019000910198009942F2C812C0F60002CC
:100A100001F068F902B080BD80B582B0019000910C
:100A20000198009942F2C812C0F6000201F0A4F940
:100A300002B080BD80B542F2C810C0F6000001F0DF
:100A4000DFF980BD81B000200090009801B07047B0
:100A500081B040F20420C0F202200090009801B062
:100A60007047000080B592B010900F910E920E98D2
:100A7000406A007E8007002804D4FFE74FF0FF3073
:100A8000119022E21098013801460791032800F2E4
:100A900015820799DFE811F004002600F200BF017B
:100AA0009DF83D000006002807D5FFE70E98016875
:100AB000088840F04000088006E00E980168088829
:100AC00020F040000880FFE70F9A910A40F2FE30C4
:100AD00000EA420061F3CF3000F580400E990968CA
:100AE0000881EFE145F20010C0F225200A900F982E
:100AF0000690012804D0FFE7069802282ED08BE04C
:100B00000A984DF68161C0F28021884204D3FFE744
:100B10006FF003001190D8E10A9848F27F41C0F2CB
:100B20001E01884204D8FFE76FF003001190CCE16A
:100B30000A98400945F6C521C0F67C21A0FB0110AA
:100B4000000A09900A984DF68361C4F21B31A0FB9C
:100B50000101012000EB9140089061E00A984DF6F8
:100B60008161C0F28021884204D3FFE76FF0030067
:100B70001190AAE10A9840F6FF01C0F23D018842B7
:100B800004D8FFE76FF0030011909EE10A9849F244
:100B90008061C0F2980188421FD3FFE70A9844F2AF
:100BA000A561CAF68D6148434FEAF0104008D62887
:100BB00013D8FFE70A98C00948F65931C0F24F111F
:100BC000A0FB0110000947F2A401C0F63D21A0FBE3
:100BD000011000F54040099012E00A98C00948F65B
:100BE0005931C0F24F11A0FB0110000945F25651D6
:100BF000C5F25551A0FB011000F500400990FFE738
:100C00000A984AF6BB01CCF65311A0FB0101012062
:100C100000EB9140089003E06FF00300119054E165
:100C20000E980168088820F0010008800E9801687D
:100C3000888820F03F0088800A984DF68361C4F2CE
:100C40001B31A0FB01020E980168888840EA92409F
:100C5000888009980E990968888308980E99096810
:100C600008840E980168088840F0010008800E98FA
:100C70000168088840F48060088023E10E980168CC
:100C8000088820F00100088001F004F940F200001B
:100C9000C2F200000068400945F6C521C0F67C217B
:100CA000A0FB0110400A0A900E99C868898A0122A7
:100CB0000492FFF701FD049A0E990869C98AFFF7AB
:100CC000FBFC049A0E99C868898A03230593FFF7F1
:100CD00077FC049A059B0E990869C98AFFF770FC96
:100CE00000200C90FFE70C98082836D8FFE70E99F3
:100CF0000869C98AFFF7D4FC08B1FFE72DE00E9917
:100D0000C868898A0122FFF7D7FC00200B90FFE713
:100D10000B980A99884206D2FFE700BFFFE70B98BD
:100D200001300B90F4E70E99C868898A002203927B
:100D3000FFF7C2FC03980B90FFE70B980A998842D3
:100D400006D2FFE700BFFFE70B9801300B90F4E7F6
:100D5000FFE70C9801300C90C5E70E990869C98A25
:100D6000FFF79EFC0D900E990869C98A0022029235
:100D7000FFF7A2FC02980B90FFE70B980A998842B4
:100D800006D2FFE700BFFFE70B9801300B90F4E7B6
:100D90000E99C868898A0122FFF78EFC00200B900B
:100DA000FFE70B980A99884206D2FFE700BFFFE7EA
:100DB0000B9801300B90F4E70E990869C98A01225B
:100DC000FFF77AFC0E99C868898A032301931A46B3
:100DD000FFF7F6FB019B0E990869C98A1A46FFF7CF
:100DE000EFFB0E980168088840F0010008800E981B
:100DF000406A006838B1FFE70E98406A01684FF416
:100E000080708847FFE70D990020002908BF4FF048
:100E1000FF30119059E00E980168888820F46060D6
:100E200088800E980168088840F4007008800E9849
:100E3000416A002088600E99496AC8600E99496A23
:100E400008610E99496A88820E99496A88750E98D8
:100E5000416A486820F0010048600E98416A48687D
:100E600020F0020048600E98416A486820F00400B3
:100E700048600E98416A486820F0080048600E9863
:100E8000416A486820F0100048600E98416A48683E
:100E900020F0200048600E980168088820F00100CA
:100EA00008800E980168088840F0010008800E98BC
:100EB0000168088840F48060088003E04FF0FF304C
:100EC000119002E000201190FFE7119812B080BD50
:100ED00080B584B0039003980068808A0290002057
:100EE000019000909DF809000006002805D5FFE755
:100EF000009840F400400090FFE79DF8090040068C
:100F0000002805D5FFE7009840F480400090FFE7F7
:100F10009DF80900C006002805D5FFE7009840F4B9
:100F200080500090FFE79DF809000007002805D5D4
:100F3000FFE7009840F400600090FFE79DF809008B
:100F4000400700282CD5FFE7009840F4806000900F
:100F500003980168088840F4007008800398416A8B
:100F6000486820F0010048600398416A486820F012
:100F7000020048600398416A002008610399496AA9
:100F80008875012001900398406A807D4007002801
:100F900005D4FFE7019840F010000190FFE7FFE75C
:100FA0009DF809008007002820D5FFE7009840F44D
:100FB000007000900398416A486820F00100486082
:100FC0000398416A486820F0020048600398416A2B
:100FD000486840F0100048600398416A00200861AA
:100FE0000399496A887541200190FFE79DF809003F
:100FF000C00710B3FFE7009840F48070009003989A
:10100000416A486840F0200048600398406A4068A0
:101010004008C00770B9FFE70398416A486820F0AC
:10102000010048600398416A002008610399496AF9
:101030008875FFE781200190FFE7009A0398016817
:10104000888A904388820198B8B1FFE70398406A84
:10105000006890B1FFE70398406A8168C0688842E1
:1010600005D2FFE7019840F002000190FFE70398E6
:10107000406A016801988847FFE704B080BD00001E
:1010800080B586B005900598406A083004900598B0
:101090000068808AADF80C00BDF80C00C00728B3CA
:1010A000FFE7049880894005002809D5FFE70498E8
:1010B0008189062000EAD110F0308DF80F000FE092
:1010C0000498007B40008DF80F000598406A406846
:1010D000C0F380019DF80F0008438DF80F00FFE773
:1010E0009DF80F0005990968088292E3BDF80C008D
:1010F0000007002813D5FFE70498007B05990968CD
:1011000008820598406A40688008C00730B1FFE750
:101110000499887B40F002008873FFE778E3BDF80C
:101120000C008007002840F12981FFE70498807BAC
:10113000400700282BD5FFE70598416A486820F052
:1011400001004860012001900498016840688842CD
:1011500005D2FFE7019840F002000190FFE70598F3
:10116000406A4068C008C00728B1FFE7019840F016
:1011700020000190FFE70598406A006830B1FFE762
:101180000598406A016801988847FFE7FFE70598DE
:10119000406A40684008C007002864D0FFE705980F
:1011A000406A40688008C00700285CD0FFE70498C8
:1011B0000068012807D1FFE705980168088820F436
:1011C00080600880FFE705980068808A05980068BD
:1011D000008B0498807B800700280CD5FFE70499DA
:1011E000887B00F0FD00887305980168088840F44A
:1011F0008070088036E00498006801280DD1FFE770
:101200000498807BC00738B9FFE705980168088813
:1012100040F400700880FFE723E00498006802288B
:1012200012D1FFE705980168088820F480600880E3
:1012300005980168088840F4006008800499887B5C
:1012400040F0100088730BE004980068032806D172
:10125000FFE70499887B40F010008873FFE7FFE701
:10126000FFE7FFE76EE005980068008BADF80A0025
:101270000598406A40684008C007002861D1FFE730
:10128000BDF80A00C006002807D5FFE70598416AA7
:10129000486840F00800486006E00598416A4868E0
:1012A00020F008004860FFE7BDF80A00400700286A
:1012B00007D5FFE70598416A486820F004004860B8
:1012C00006E00598416A486840F004004860FFE77E
:1012D000002001900498806890B9FFE70598406A63
:1012E00040688008C00728B1FFE7019840F0080077
:1012F000019004E0019840F004000190FFE7FFE74F
:101300000598406A4068C008C00728B1FFE7019807
:1013100040F020000190FFE7019858B1FFE70598E1
:10132000406A006830B1FFE70598406A016801989B
:101330008847FFE70598416A486840F00100486027
:10134000FFE7FFE70499887B40F024008873059845
:10135000406858B1FFE70598806838B1FFE7059805
:101360000168888840F40060888006E0059801687C
:10137000888840F480608880FFE748E2BDF80C0070
:10138000C006002836D5FFE704990020886004993C
:10139000887305980168088840F480600880059883
:1013A000416A486820F001004860012001900498DB
:1013B00001684068884205D2FFE7019840F00200CA
:1013C0000190FFE70598406A4068C008C00728B14F
:1013D000FFE7019840F020000190FFE70598406A80
:1013E000006830B1FFE70598406A016801988847B6
:1013F000FFE70BE20498807B8006002840F105821D
:10140000FFE70498807B000700283CD5FFE705989C
:10141000406A40684008C007A0B3FFE70598406AEB
:10142000807DC00738B1FFE705980168888820F4FF
:101430000070888006E005980168088840F4007014
:101440000880FFE70499002088600499887B00F0F9
:10145000DF0088730598416A486820F00100486001
:101460000598416A486820F0020048600598406A83
:10147000006830B1FFE70598406A0168012088479D
:10148000FFE7FFE7C0E1BDF80C000006002840F1CF
:101490009980FFE70598406A40684008C007002827
:1014A0005FD0FFE70498807BC006002840D5FFE7A7
:1014B000BDF80C004007002839D5FFE70598016802
:1014C000888820F4806088800498807BC00738B1C9
:1014D000FFE705980168888820F40070888006E09E
:1014E00005980168088840F400700880FFE70499B7
:1014F000002088600499887B00F0DF0088730598DD
:10150000416A486820F0010048600598416A4868CF
:1015100020F0020048600598406A006830B1FFE79B
:101520000598406A016801208847FFE7FFE717E058
:10153000049841688068405C0599096808820499AC
:10154000486801304860049801684068884206D1C4
:10155000FFE70499887B40F010008873FFE7FFE7FE
:101560002FE00498806860B9FFE70598406A00683A
:1015700030B1FFE70598406A016804208847FFE71B
:10158000FFE704988068B0B1FFE70498416880687D
:10159000405C0599096808820499486801304860F0
:1015A000049801684068884204D1FFE7049900204C
:1015B0008860FFE704E005980168FF200882FFE7E4
:1015C000FFE720E1BDF80C004006002840F11A8139
:1015D000FFE70598406A40684008C007002800F00F
:1015E000E380FFE70498807BC006002840F18280FA
:1015F000FFE7BDF80C00400700287AD5FFE7049804
:101600000068022807D0FFE70498016840680239A3
:10161000884259D1FFE705980168888820F48060E6
:1016200088800498807BC00738B1FFE7059801687F
:10163000888820F40070888006E005980168088892
:1016400040F400700880FFE705980068008ADDF824
:1016500010C0DCF80420DCF80810531CCCF804306F
:10166000885405980068008ADDF810C0DCF8042072
:10167000DCF80810531CCCF804308854049900207E
:1016800088600499887B00F0DF0088730598416AC0
:10169000486820F0010048600598416A486820F0D9
:1016A0000200486005980168088820F400600880FE
:1016B0000598406A006830B1FFE70598406A016804
:1016C00001208847FFE713E005980168088820F4A7
:1016D0008060088005980068008ADDF810C0DCF89A
:1016E0000420DCF80810531CCCF804308854FFE7C1
:1016F000FFE758E005980068008ADDF810C0DCF8C4
:101700000420DCF80810531CCCF8043088540498EA
:101710000068012832D1FFE705980168888820F425
:10172000806088800498807BC00738B1FFE7059807
:101730000168888820F400708880FFE70499002001
:1017400088600499887B00F0DF0088730598416AFF
:10175000486820F0010048600598416A486820F018
:10176000020048600598406A006830B1FFE70598BC
:10177000406A016801208847FFE713E00498016888
:101780004068033988420CD1FFE7059801688888D2
:1017900020F4806088800499887B40F01000887372
:1017A000FFE7FFE7FFE72CE005980068008A8DF867
:1017B0000F000498806838B9FFE705980168088829
:1017C00020F4806008801BE004980168406888422B
:1017D00015D2FFE79DF80F0004994A68896888547C
:1017E000049948680130486004980168406888425C
:1017F00004D1FFE7049900208860FFE7FFE7FFE7D7
:10180000FFE7FFE7FFE7FFE7FFE7FFE7FFE7FFE7A8
:10181000FFE706B080BD000081B00090009A40F262
:101820008401C2F2000108681043086001B07047EB
:1018300082B001900198406A40684008C00758B9DA
:10184000FFE70198406A807D4007002804D4FFE745
:101850004FF0FF30009004E00198406AC0680090AB
:10186000FFE7009802B0704782B000900098406A8D
:1018700040680190019802B07047000080B586B0C2
:10188000049003910398406A007EC00718B1FFE7F7
:101890000020059032E00398008BFEF791FD03983D
:1018A000C06801210191FEF721FF0399C868898A68
:1018B000032300931A46FEF783FE019903980069FB
:1018C000FEF714FF009B03990869C98A1A46FEF7C0
:1018D00077FE01990398426A00200290906150615E
:1018E0001061D060906050601060049A039B5B6A46
:1018F0001A60039A526A11760590FFE7059806B0C0
:1019000080BD000085B0DDF814C003900291019203
:101910008DF80330029818B1FFE7019820B9FFE76E
:101920006FF0040004907DE0039820F40440B0F5CB
:10193000806F04D3FFE76FF00400049072E0059815
:10194000406A0079C00720B1FFE76FF00100049002
:1019500068E00598406A807DC00758B9FFE7FFE757
:1019600005980068008B8007002802D5FFE700BFBC
:10197000F6E7FFE70598416A486840F001004860D3
:101980000598416A486840F0020048600598416A3D
:10199000486840F0040048600598416A486820F0B3
:1019A000200048600598416A486820F010004860AF
:1019B00001980599496A88600598416A0020C860C5
:1019C0000299059A526A11610399059A526A9182A5
:1019D0000599496A88759DF80300C00738B1FFE78B
:1019E0000598416A887D40F001008875FFE70598F9
:1019F0000168088840F4806008800598016888883C
:101A000020F40070888005980168088840F4807090
:101A1000088005980168888840F40070888000205C
:101A20000490FFE7049805B07047000085B0DDF82A
:101A300014C00390029101928DF80330029818B1FE
:101A4000FFE7019820B9FFE76FF00400049077E00A
:101A5000039820F40440B0F5806F04D3FFE76FF0E3
:101A6000040004906CE00598406A0079C00720B13A
:101A7000FFE76FF00100049062E00598406A807D06
:101A8000C00758B9FFE7FFE705980068008B80079B
:101A9000002802D5FFE700BFF6E7FFE70598416A97
:101AA000486840F0010048600598416A486840F085
:101AB000020048600598416A486820F004004860C8
:101AC0000598416A486820F0200048600598416AFE
:101AD000486820F01000486001980599496A8860BC
:101AE0000598416A0020C8600299059A526A1161FE
:101AF0000399059A526A91820599496A88759DF8F9
:101B00000300C00738B1FFE70598416A887D40F0BF
:101B100001008875FFE705980168888820F4007047
:101B2000888005980168088840F4807008800598CE
:101B30000168888840F40070888000200490FFE7E6
:101B4000049805B07047000080B586B08DF813008A
:101B500003919DF813000146029140B1FFE70298FE
:101B600001284DD0FFE7029802284DD0B4E0039839
:101B7000026A41F21C01C4F202010191086810439B
:101B800008600398016800200880039890F91C0001
:101B900000F078FA039890F91D0000F073FA0199AB
:101BA0000398026A0868904308600398416A48688D
:101BB00020F0010048600398416A486820F0020064
:101BC00048600398416A486820F004004860039820
:101BD000416A486820F0080048600398416A4868F4
:101BE00020F0100048600398416A486820F0200007
:101BF00048600398416A087E00F0FD0008766BE0BB
:101C00006FF0030005906AE00398406A007EC00709
:101C100020B9FFE74FF0FF30059060E00398406A7D
:101C2000007E8007002803D5FFE70020059056E0DE
:101C30000398026A41F21C01C4F2020108681043D1
:101C40000860039890F91C0000F004FA039890F9DA
:101C50001D0000F0FFF9039890F91C0000F02EFA27
:101C6000039890F91D0000F029FA0398026A41F2E6
:101C70001001C4F2020108681043086000BF00BFF1
:101C800000BF00BF0398026A086890430860039889
:101C90000168888840F440708880039801688888CB
:101CA00020F48060888003980168088820F0800014
:101CB000088003980168088840F0010008800398B4
:101CC0000168088840F4806008800398416A087EB3
:101CD00040F002000876FFE700200590FFE7059836
:101CE00006B080BD84B0029001910092029818B1B4
:101CF000FFE7019820B9FFE76FF00400039038E098
:101D00000098406A0079C00720B1FFE76FF001003A
:101D100003902EE00098416A486820F02000486057
:101D20000098416A486820F00800486001980099CE
:101D3000496A88600098416A0020C8600299009A48
:101D4000526A11610099496A887500990A689188F8
:101D500041F48051918000990A68118841F48061B2
:101D6000118000990A68918841F400719180039074
:101D7000FFE7039804B0704784B00290019100928D
:101D8000029818B1FFE7019820B9FFE76FF004004F
:101D9000039032E00098406A0079C00720B1FFE765
:101DA0006FF00100039028E00098416A486820F035
:101DB000200048600098416A486820F008004860A8
:101DC00001980099496A88600098416A0020C860BB
:101DD0000299009A526A11610099496A88750099BE
:101DE0000A68118841F48061118000990A6891881D
:101DF00041F4007191800390FFE7039804B07047AD
:101E000080B584B003900399C868898A0022029241
:101E100002230193FEF7D4FB019B029A0399086900
:101E2000C98AFEF7CDFB2120FEF7CAFA0298039972
:101E3000496A087604B080BD7047000081B0009008
:101E40001421C4F20001088840F00100088010212C
:101E5000C4F20001088820F001000880FFE7009824
:101E6000A8B1FFE7FFE71020C4F200000088C00718
:101E700008B9FFE7F7E71021C4F20001088820F055
:101E800001000880FFE7009801380090E7E701B003
:101E90007047000084B0002003900290019041F24E
:101EA0000400C4F20200006800F00C0003900398E4
:101EB000009040B1FFE7009804280ED0FFE700989B
:101EC000082814D056E040F20001C2F2000141F2AD
:101ED0000020C0F27A00086056E040F20001C2F231
:101EE000000141F20020C0F27A0008604CE041F2AB
:101EF0000400C4F20200016801F47011029100684C
:101F000000F4803001900299022000EB9140029091
:101F1000019860B9FFE7029840F60011C0F23D0158
:101F2000484340F20001C2F20001086021E041F2A2
:101F30000400C4F202000068800300280CD5FFE70B
:101F4000029840F60011C0F23D01484340F2000102
:101F5000C2F2000108600BE0029841F20021C0F2D9
:101F60007A01484340F20001C2F200010860FFE735
:101F7000FFE709E040F20001C2F2000141F2002057
:101F8000C0F27A000860FFE741F20400C4F20200E8
:101F90000068C0B2010942F28810C0F60000405C3F
:101FA0000390039A40F20001C2F200010868D04099
:101FB000086004B07047000080B541F20002C4F22E
:101FC0000202106840F00100106041F20401C4F206
:101FD000020108680023CFF6FF031840086010686C
:101FE0004FF6FF73CFF6F66318401060106820F4C8
:101FF00080201060086820F4FE00086041F20801AB
:10200000C4F202014FF41F000860FFF715FF4EF6FF
:102010000851CEF200014FF00060086080BD000062
:1020200041F21C01C4F20201086840F0010008609E
:102030002C21C4F2000140F2E73008802821C4F2CC
:102040000001072008804FF08041088840F001001F
:102050000880704781B08DF803009DF903000028C7
:102060000ED4FFE79DF9031001F01F0201209040FC
:102070004A094EF28021CEF2000141F82200FFE72A
:1020800001B0704781B08DF803009DF9030000286E
:1020900012D4FFE79DF9031001F01F0201209040C8
:1020A0004A094EF28011CEF2000141F82200BFF33E
:1020B0004F8FBFF36F8FFFE701B0704781B08DF88E
:1020C00003009DF9030000280ED4FFE79DF90310DB
:1020D00001F01F02012090404A094EF20011CEF299
:1020E000000141F82200FFE701B0704780B588B0D9
:1020F00000200790FFE741F20000C4F202000068F0
:102100008007002801D4FFE7F5E7FFF789FF40F6D5
:102110000000C4F20100002203920323029311463F
:10212000FEF74EFA42F29810C0F600000490816863
:1021300041F61900C0F600008847049801690220A2
:1021400001908847049901988A6A01219047049A6E
:1021500003990298926A9047039B049846F265514E
:10216000C0F26501069146F26151C6F265510591D2
:10217000D0F814C0202005A90822E047FFE74FF45B
:10218000FA70FFF75BFEFAE70000000000000000B5
:102190000102030406070809510A0008450A00085D
:1021A00061090008350A0008E1090008AD090008C6
:1021B00079090008190A0008FD0900083909000812
:1021C000FD08000849090008005400400000000014
:1021D00000000000000C0140000C01400600070058
:1021E000210000001F2000000000200068000020E7
:1021F0001022000800000020080000005001000824
:102200001822000808000020800600007001000865
:0822100000127A00000000003A
:04000005080000ED02
:00000001FF
