:020000040800F2
:1000000000280020293F0008A9040008B1040008C6
:10001000B9040008C1040008C90400080000000079
:10002000000000000000000000000000D1040008F3
:10003000DD04000800000000E9040008F5040008E1
:10004000713F0008713F0008713F0008713F0008D0
:10005000713F0008713F0008713F0008713F0008C0
:10006000713F0008713F0008713F0008713F0008B0
:10007000713F0008713F0008713F0008713F0008A0
:100080000105000815050008713F0008713F0008D0
:10009000713F0008713F0008713F0008713F000880
:1000A000713F0008713F0008713F0008713F000870
:1000B000713F0008713F000800000000290500089A
:1000C0003D0500080000000000000000713F00082E
:1000D00000000000713F0008713F000800000000B0
:1000E000713F0008713F0008713F000800000000E8
:1000F0000000000000000000000000000000000000
:0C01000000000000000000005FF808F1A3
:10010C0010B5054C237833B9044B13B10448AFF345
:10011C0000800123237010BD0C00002000000000A3
:10012C00CC3F000808B5034B1BB103490348AFF3A0
:10013C00008008BD0000000010000020CC3F00082B
:10014C0080B58CB004AF02F0D9FD00F02DF800F0B2
:10015C006DF800F0A9F800F0CDF80A2002F030FE9E
:10016C0000BF0F4801F06AF80346202BF9D14FF07D
:10017C00FF330293202301933B460093102341F25B
:10018C0010021421064800F067FB0346012B05D131
:10019C0001220121034803F0AFFB00BF00BFFDE7C4
:1001AC00280000200008014080B590B000AF07F196
:1001BC00180328220021184603F0D5FE3B1D00220F
:1001CC001A605A609A60DA601A610223BB610123DB
:1001DC00BB621023FB6200237B6307F118031846F4
:1001EC0002F012FE0346002B01D000F018F80F238A
:1001FC007B600023BB600023FB6000233B6100237A
:10020C007B613B1D0021184603F080F80346002B50
:10021C0001D000F004F800BF4037BD4680BD80B46B
:10022C0000AF72B600BF00BFFDE7000080B586B01E
:10023C0000AF07F1080300221A605A609A60DA6076
:10024C00174B9B69164A43F004039361144B9B694B
:10025C0003F004037B607B68114B9B69104A43F0ED
:10026C00080393610E4B9B6903F008033B603B68EA
:10027C00002207210B4803F03FFB0723BB6001233F
:10028C00FB6000233B6102237B6107F108031946E5
:10029C00044803F0B5F900BF1837BD4680BD00BF58
:1002AC00001002400008014080B582B000AF104B36
:1002BC005B690F4A43F0010353610D4B5B6903F01B
:1002CC0001037B607B6800220021102003F0E9FD14
:1002DC00102003F002FE00220021112003F0E1FDAA
:1002EC00112003F0FAFD00BF0837BD4680BD00BFEA
:1002FC000010024080B500AF124B134A1A60114B2C
:10030C00124A5A600F4B00229A600E4B0022DA60A0
:10031C000C4B4FF480421A610A4B00225A61094B74
:10032C0000229A61074B0022DA61064B80221A6286
:10033C00044800F039F90346002B01D0FFF76FFF9A
:10034C0000BF80BD2800002000540040A0860100A2
:10035C0080B588B000AF786007F1100300221A60F6
:10036C005A609A60DA607B681B68454A934240F099
:10037C008280444B9B69434A43F008039361414B91
:10038C009B6903F00803FB60FB68C0233B611223ED
:10039C007B610023BB610323FB6107F1100319464A
:1003AC00394803F02DF9374BDB69364A43F4001317
:1003BC00D361344BDB6903F40013BB60BB68334B74
:1003CC00334A1A60314B00225A60304B00229A603B
:1003DC002E4B8022DA602D4B00221A612B4B00220F
:1003EC005A612A4B00229A61284B0022DA61274875
:1003FC0003F09AFA0346002B01D0FFF710FF7B683D
:10040C00224A9A63214A7B685362224B224A1A6021
:10041C00204B10225A601F4B00229A601D4B8022E9
:10042C00DA601C4B00221A611A4B00225A61194BDC
:10043C0000229A61174B0022DA61164803F074FA15
:10044C000346002B01D0FFF7EAFE7B68114A5A6382
:10045C00104A7B685362002200211F2003F021FD0B
:10046C001F2003F03AFD00220021202003F019FD8B
:10047C00202003F032FD00BF2037BD4680BD00BFF9
:10048C000054004000100240000C01407C00002091
:10049C0080000240C00000206C00024080B400AF1D
:1004AC0000BFFDE780B400AF00BFFDE780B400AF34
:1004BC0000BFFDE780B400AF00BFFDE780B400AF24
:1004CC0000BFFDE780B400AF00BFBD4680BC7047E5
:1004DC0080B400AF00BFBD4680BC704780B400AF95
:1004EC0000BFBD4680BC704780B500AF02F04CFC2D
:1004FC0000BF80BD80B500AF024803F0E7FA00BF33
:10050C0080BD00BFC000002080B500AF024803F0E2
:10051C00DDFA00BF80BD00BF7C00002080B500AFBD
:10052C00024800F00DFC00BF80BD00BF2800002079
:10053C0080B500AF024800F074FD00BF80BD00BF65
:10054C002800002080B485B000AF154B9B69144A7D
:10055C0043F001039361124B9B6903F00103BB60F1
:10056C00BB680F4BDB690E4A43F08053D3610C4BD5
:10057C00DB6903F080537B607B680A4B5B68FB6034
:10058C00FB6823F0E063FB60FB6843F08063FB6077
:10059C00044AFB68536000BF1437BD4680BC7047EB
:1005AC00001002400000014080B584B000AF7860BC
:1005BC007B68002B01D101232BE17B6893F83D3044
:1005CC00DBB2002B06D17B68002283F83C207868D4
:1005DC00FFF7BEFE7B68242283F83D207B681B68F6
:1005EC001A687B681B6822F001021A607B681B6822
:1005FC001A687B681B6842F400421A607B681B68AF
:10060C001A687B681B6822F400421A6002F0C6FF6D
:10061C00F8607B685B68814A934207D8FB68804A24
:10062C00934294BF01230023DBB206E0FB687D4AB2
:10063C00934294BF01230023DBB2002B01D0012392
:10064C00E7E0FB68784AA2FB03239B0CBB607B684A
:10065C001B685B6823F03F017B681B68BA680A4320
:10066C005A607B681B681B6A23F03F017B685B68E0
:10067C006A4A934202D8BB68013309E0BB684FF465
:10068C00967202FB03F3694AA2FB03239B09013315
:10069C007A6812680B4313627B681B68DB6923F46E
:1006AC004F4222F0FF027B685B685C498B4219D891
:1006BC00FB68591E7B685B685B00B1FBF3F3591C4C
:1006CC0040F6FC730B40002B0AD0FB68591E7B686C
:1006DC005B685B00B1FBF3F30133C3F30B0351E035
:1006EC0004234FE07B689B68002B11D1FB68581EDC
:1006FC007B6859680B465B000B44B0FBF3F301338A
:10070C00C3F30B03002B0CBF01230023DBB212E05D
:10071C00FB68581E7B6859680B469B000B4499007C
:10072C000B44B0FBF3F30133C3F30B03002B0CBFEF
:10073C0001230023DBB2002B01D0012322E07B68D4
:10074C009B68002B0ED1FB68581E7B6859680B46C2
:10075C005B000B44B0FBF3F30133C3F30B0343F423
:10076C0000430FE0FB68581E7B6859680B469B00E2
:10077C000B4499000B44B0FBF3F30133C3F30B03AD
:10078C0043F44043796809681343CB617B681B6869
:10079C001B6823F0C0017B68DA697B681B6A1A430B
:1007AC007B681B680A431A607B681B689B6823F490
:1007BC00034323F0FF037A6811697A68D268114306
:1007CC007A6812680B4393607B681B68DB6823F0C4
:1007DC00FF017B685A697B689B691A437B681B68BD
:1007EC000A43DA607B681B681A687B681B6842F0F6
:1007FC0001021A607B6800221A647B68202283F84D
:10080C003D207B6800221A637B68002283F83E201F
:10081C00002318461037BD4680BD00BFA0860100DE
:10082C007F841E00FF083D0083DE1B43D34D621006
:10083C0080B483B000AF78607B681B685B6903F0A1
:10084C008003802B03D17B681B6800221A6100BFD8
:10085C000C37BD4680BC704780B58CB002AFF860D9
:10086C00084611461A4603467B810B463B811346CC
:10087C00FB8000233B6202F099FA7862FB6893F8E4
:10088C003D30DBB2202B40F050827B6A0093192361
:10089C0001228249F86801F0F7FF0346002B01D0D2
:1008AC00022343E2FB6893F83C30012B01D1022375
:1008BC003CE2FB68012283F83C20FB681B681B6848
:1008CC0003F00103012B07D0FB681B681A68FB6857
:1008DC001B6842F001021A60FB681B681A68FB680F
:1008EC001B6822F400621A60FB68222283F83D2008
:1008FC00FB68402283F83E20FB6800221A64FB68E8
:10090C003A6B5A62FB68BA8E5A85FB685B8D9AB259
:10091C00FB681A85FB68624ADA62F8883A89798939
:10092C007B6A0193BB6B00930346F86801F01CFED5
:10093C000346002B01D00123F8E1FB681B8D002B33
:10094C0013D10023FB61FB681B685B69FB61FB68CF
:10095C001B689B69FB61FB69FB681B681A68FB6879
:10096C001B6842F400721A60CCE1FB681B8D012BF2
:10097C001ED1FB681B681A68FB681B6822F4806236
:10098C001A6072B600BF0023BB61FB681B685B6911
:10099C00BB61FB681B689B69BB61BB69FB681B681F
:1009AC001A68FB681B6842F400721A6062B635E084
:1009BC00FB681B8D022B1ED1FB681B681A68FB6839
:1009CC001B6842F400621A6072B600BF00237B61A0
:1009DC00FB681B685B697B61FB681B689B697B61BF
:1009EC007B69FB681B681A68FB681B6822F48062D1
:1009FC001A6062B612E0FB681B681A68FB681B6819
:100A0C0042F480621A6000233B61FB681B685B69DF
:100A1C003B61FB681B689B693B613B6972E1FB684E
:100A2C001B8D032B00F21F81FB681B8D012B23D127
:100A3C007A6AB96BF86802F0BBF80346002B01D058
:100A4C00012373E1FB681B681A69FB685B6AD2B20D
:100A5C001A70FB685B6A5A1CFB685A62FB681B8D38
:100A6C00013B9AB2FB681A85FB685B8D9BB2013B1C
:100A7C009AB2FB685A8545E1FB681B8D022B52D15B
:100A8C007B6A0093BB6B00220649F86801F0FCFE00
:100A9C000346002B08D0012348E100BF02001000E0
:100AAC000000FFFF0400010072B600BFFB681B686A
:100ABC001A68FB681B6842F400721A60FB681B68BA
:100ACC001A69FB685B6AD2B21A70FB685B6A5A1CC3
:100ADC00FB685A62FB681B8D013B9AB2FB681A8556
:100AEC00FB685B8D9BB2013B9AB2FB685A8562B680
:100AFC0000BFFB681B681A69FB685B6AD2B21A708C
:100B0C00FB685B6A5A1CFB685A62FB681B8D013BD5
:100B1C009AB2FB681A85FB685B8D9BB2013B9AB25B
:100B2C00FB685A85EEE07B6A0093BB6B002281491F
:100B3C00F86801F0A9FE0346002B01D00123F5E073
:100B4C00FB681B681A68FB681B6822F480621A60D9
:100B5C0072B600BFFB681B681A69FB685B6AD2B28D
:100B6C001A70FB685B6A5A1CFB685A62FB681B8D27
:100B7C00013B9AB2FB681A85FB685B8D9BB2013B0B
:100B8C009AB2FB685A856C4B1B68DB086B4AA2FB5C
:100B9C0003231A0A13469B001344DA00D31A3B6250
:100BAC003B6A013B3B623B6A002B18D1FB6800227D
:100BBC001A63FB68202283F83D20FB68002283F82F
:100BCC003E20FB681B6C43F02002FB681A6462B683
:100BDC0000BFFB68002283F83C200123A6E0FB68E1
:100BEC001B685B6903F00403042BD9D1FB681B68F9
:100BFC001A68FB681B6842F400721A60FB681B6879
:100C0C001A69FB685B6AD2B21A70FB685B6A5A1C81
:100C1C00FB685A62FB681B8D013B9AB2FB681A8514
:100C2C00FB685B8D9BB2013B9AB2FB685A8562B63E
:100C3C0000BFFB681B681A69FB685B6AD2B21A704A
:100C4C00FB685B6A5A1CFB685A62FB681B8D013B94
:100C5C009AB2FB681A85FB685B8D9BB2013B9AB21A
:100C6C00FB685A854EE07A6AB96BF86801F0A0FF10
:100C7C000346002B01D0012358E0FB681B681A695E
:100C8C00FB685B6AD2B21A70FB685B6A5A1CFB6821
:100C9C005A62FB681B8D013B9AB2FB681A85FB6894
:100CAC005B8D9BB2013B9AB2FB685A85FB681B6853
:100CBC005B6903F00403042B24D1FB681B8D032B0D
:100CCC0007D1FB681B681A68FB681B6822F48062FA
:100CDC001A60FB681B681A69FB685B6AD2B21A70EF
:100CEC00FB685B6A5A1CFB685A62FB681B8D013BF4
:100CFC009AB2FB681A85FB685B8D9BB2013B9AB27A
:100D0C00FB685A85FB681B8D002B7FF488AEFB6853
:100D1C00202283F83D20FB68002283F83E20FB68EC
:100D2C00002283F83C20002300E0022318462837D9
:100D3C00BD4680BD040001000800002089B5F814F0
:100D4C0080B588B000AF78600023BB617B681B68FE
:100D5C005B687B617B68DB6A3B617B6893F83E3048
:100D6C00FB737B6893F83D30BB73FB7B102B03D07C
:100D7C00FB7B402B40F0C1807B681B689B69BB618F
:100D8C007B681B685B69FB61FB6903F00103002B4B
:100D9C000DD13B69B3F52A0F03D03B69B3F12A4F50
:100DAC0001D1012300E00023012B00F03281FB690B
:100DBC0003F00103002B0CD07B695B0A03F00103E9
:100DCC00002B06D0786801F07EFF786800F0A6FD55
:100DDC0092E0FB69DB0803F00103002B09D07B696F
:100DEC005B0A03F00103002B03D0786800F01BFEB4
:100DFC0082E0FB695B0803F00103002B09D07B69DF
:100E0C005B0A03F00103002B03D0786800F034FE7A
:100E1C0072E0BB699B0803F00103002B3BD07B689D
:100E2C001B685B6803F40063B3F5006F00F0F3809C
:100E3C00FB69DB0903F00103002B0FD07B699B0AD4
:100E4C0003F00103002B09D0FB699B0803F001039D
:100E5C00002B03D1786800F0FEF94DE0FB699B088C
:100E6C0003F00103002B00F0D6807B695B0A03F0D2
:100E7C000103002B00F0CF80BB7B212B03D17868C2
:100E8C0000F085FAC7E0FB7B402B40F0C48078680B
:100E9C0000F0F3FABFE07B681B685B6803F4006347
:100EAC00B3F5006F00F0B780FB699B0903F00103F9
:100EBC00002B0FD07B699B0A03F00103002B09D098
:100ECC00FB699B0803F00103002B03D1786800F049
:100EDC006CFB11E0FB699B0803F00103002B00F095
:100EEC009A807B695B0A03F00103002B00F093806E
:100EFC00786800F022FC8EE08DE07B681B6C002B88
:100F0C0004D07B681B685B69FB6107E07B681B682E
:100F1C009B69BB617B681B685B69FB61FB695B0858
:100F2C0003F00103002B12D07B695B0A03F0010371
:100F3C00002B0CD07B681B6C002B03D07B681B68D0
:100F4C009B69BB61B969786800F0EDFF66E0FB69ED
:100F5C001B0903F00103002B09D07B695B0A03F02A
:100F6C000103002B03D0786801F028F856E0BB7B16
:100F7C00212B02D0BB7B292B25D1FB69DB0903F08C
:100F8C000103002B0FD07B699B0A03F00103002B9C
:100F9C0009D0FB699B0803F00103002B03D178688F
:100FAC0000F005FF39E0FB699B0803F00103002BFF
:100FBC0033D07B695B0A03F00103002B2DD07868DA
:100FCC0000F032FF29E0FB699B0903F00103002BC1
:100FDC000FD07B699B0A03F00103002B09D0FB693E
:100FEC009B0803F00103002B03D1786800F03CFF51
:100FFC0014E0FB699B0803F00103002B0ED07B6906
:10100C005B0A03F00103002B08D0786800F06AFF3C
:10101C0004E000BF02E000BF00E000BF2037BD4687
:10102C0080BD80B58AB000AF78607B681B685B6957
:10103C003B627B681B685B68FB6100237B627B689F
:10104C0093F83E30FB763B6A1B0A03F00103002B3E
:10105C0016D0FB691B0A03F00103002B10D07B6A2E
:10106C0043F001037B627B681B686FF480725A61EA
:10107C007B681B681A687B681B6842F400421A6024
:10108C003B6A5B0A03F00103002B0ED0FB691B0AC1
:10109C0003F00103002B08D07B6A43F002037B6250
:1010AC007B681B686FF400725A613B6A9B0A03F001
:1010BC000103002B3FD0FB691B0A03F00103002B3B
:1010CC0039D0FB7EBB767B685B8D9BB27B617B688A
:1010DC0093F83D30FB747B681B6BFB60BB7E202B55
:1010EC0012D17B69002B0FD1FB7C212B08D0FB7C10
:1010FC00292B05D0FB7C282B06D1FB68212B03D197
:10110C00786801F08BF816E07B681B686FF48062DE
:10111C005A617B6A43F004037B62FB7E102B02D086
:10112C00FB7E402B07D17B681B681A687B681B68A9
:10113C0042F400721A603B6ADB0A03F00103002BD5
:10114C000ED0FB691B0A03F00103002B08D07B6A4D
:10115C0043F008037B627B681B686FF400625A6182
:10116C007B6A002B08D07B681A6C7B6A1A437B68FD
:10117C001A64786801F0C6F800BF2837BD4680BDF8
:10118C0080B483B000AF786000BF0C37BD4680BC24
:10119C00704780B483B000AF786000BF0C37BD4699
:1011AC0080BC704780B483B000AF786000BF0C3750
:1011BC00BD4680BC704780B483B000AF786000BF80
:1011CC000C37BD4680BC704780B483B000AF7860EC
:1011DC000B46FB7013463B8000BF0C37BD4680BCF2
:1011EC00704780B483B000AF786000BF0C37BD4649
:1011FC0080BC704780B483B000AF786000BF0C3700
:10120C00BD4680BC704780B483B000AF786000BF2F
:10121C000C37BD4680BC704780B483B000AF78609B
:10122C0000BF0C37BD4680BC704780B483B000AFA4
:10123C00786000BF0C37BD4680BC704780B483B06B
:10124C0000AF78607B6893F83D30DBB218460C3702
:10125C00BD4680BC704780B584B000AF78607B68B9
:10126C0093F83D30FB737B6893F83E30BB737B681F
:10127C00DB6ABB607B681B8D002B50D1FB7B212B69
:10128C004DD1BB68082B1DD0BB68202B1AD0BB6876
:10129C0013F5803F16D07B681B685A687B681B6807
:1012AC0022F4E0625A607B6811221A637B68002288
:1012BC0083F83E207B68202283F83D207868FFF776
:1012CC005FFF60E07B681B685A687B681B6822F4D0
:1012DC00E0625A607B681B681A687B681B6842F482
:1012EC0000721A607B6800221A637B68202283F8E4
:1012FC003D207B6893F83E30DBB2402B07D17B68F6
:10130C00002283F83E207868FFF774FF3BE07B688F
:10131C00002283F83E207868FFF732FF33E0FB7B36
:10132C00212B05D0BB7B402B2DD1FB7B222B2AD133
:10133C007B685B8D9BB2002B08D17B681B685A685D
:10134C007B681B6822F480625A601CE07B6893F80F
:10135C003E30DBB2402B03D1786800F08EF812E0FF
:10136C007B685B6A1A787B681B681A617B685B6AAE
:10137C005A1C7B685A627B685B8D9BB2013B9AB2AC
:10138C007B685A85FFE700BF1037BD4680BD80B52E
:10139C0084B000AF78607B68DB6AFB607B6893F895
:1013AC003D30DBB2212B64D17B685B8D9BB2002B73
:1013BC0012D07B685B6A1A787B681B681A617B6841
:1013CC005B6A5A1C7B685A627B685B8D9BB2013BE3
:1013DC009AB27B685A854CE0FB68082B1DD0FB68E1
:1013EC00202B1AD0FB6813F5803F16D07B681B6846
:1013FC005A687B681B6822F4E0625A607B68112291
:10140C001A637B68002283F83E207B68202283F8D5
:10141C003D207868FFF7B4FE2BE07B681B685A68A8
:10142C007B681B6822F4E0625A607B681B681A6850
:10143C007B681B6842F400721A607B6800221A6396
:10144C007B68202283F83D207B6893F83E30DBB22A
:10145C00402B07D17B68002283F83E207868FFF789
:10146C00C9FE06E07B68002283F83E207868FFF70F
:10147C0087FE00BF1037BD4680BD80B584B000AF7D
:10148C0078607B6893F83D30FB737B681B6D002B99
:10149C001DD17B68DB6C012B0BD17B689B6CDAB2AA
:1014AC007B681B681A617B681B6D9A1C7B681A65CC
:1014BC0077E07B689B6C9BB21B12DAB27B681B6873
:1014CC001A617B681B6D5A1C7B681A6569E07B6826
:1014DC001B6D012B0BD17B689B6CDAB27B681B6894
:1014EC001A617B681B6D5A1C7B681A6559E07B6816
:1014FC001B6D022B52D1FB7B222B0DD17B681B6801
:10150C001A687B681B6842F480721A607B681B6DDA
:10151C005A1C7B681A6544E07B685B8D9BB2002B80
:10152C0015D0FB7B212B12D17B685B6A1A787B6808
:10153C001B681A617B685B6A5A1C7B685A627B6801
:10154C005B8D9BB2013B9AB27B685A8529E07B6824
:10155C005B8D9BB2002B24D1FB7B212B21D17B6893
:10156C001B685A687B681B6822F4E0625A607B68CF
:10157C001B681A687B681B6842F400721A607B68EF
:10158C0000221A637B68202283F83D207B680022AE
:10159C0083F83E207868FFF72DFE02E07868FFF7AD
:1015AC0047F900BF1037BD4680BD80B584B000AF91
:1015BC0078607B6893F83D30DBB2222B40F0B98029
:1015CC007B68DB6AFB607B685B8D9BB2BB60BB6836
:1015DC00032B21D97B681B681A697B685B6AD2B2C2
:1015EC001A707B685B6A5A1C7B685A627B685B8DDD
:1015FC009BB2013B9AB27B685A857B685B8D9BB230
:10160C00032B40F096807B681B685A687B681B68CC
:10161C0022F480625A608CE07B68DB6A022B7FD0FC
:10162C00BB68012B02D0BB68002B79D1786801F024
:10163C008DFA0346002B4CD17B681B681A687B68BB
:10164C001B6822F480621A607B681B685A687B688E
:10165C001B6822F4E0625A607B681B681A697B681D
:10166C005B6AD2B21A707B685B6A5A1C7B685A62DE
:10167C007B685B8D9BB2013B9AB27B685A857B6819
:10168C00202283F83D207B6893F83E30DBB2402B60
:10169C000AD17B68002283F83E207B6800221A6303
:1016AC007868FFF7B0FD44E07B68002283F83E20A9
:1016BC00FB68082B02D0FB68202B03D17B6800222F
:1016CC001A6302E07B6812221A637868FFF761FDE7
:1016DC002FE07B681B685A687B681B6822F4E06209
:1016EC005A607B681B681A697B685B6AD2B21A7095
:1016FC007B685B6A5A1C7B685A627B685B8D9BB209
:10170C00013B9AB27B685A857B68202283F83D2086
:10171C007B68002283F83E207868FFF77DFD08E0A7
:10172C007B681B685A687B681B6822F480625A606D
:10173C00FFE700BF1037BD4680BD80B584B000AF59
:10174C0078607B68DB6AFB607B685B8D9BB2042BEB
:10175C001BD17B681B685A687B681B6822F480620B
:10176C005A607B681B681A697B685B6AD2B21A7014
:10177C007B685B6A5A1C7B685A627B685B8D9BB288
:10178C00013B9AB27B685A85C4E07B685B8D9BB247
:10179C00032B29D17B681B685A687B681B6822F471
:1017AC0080625A60FB68042B0AD0FB68022B07D0BE
:1017BC007B681B681A687B681B6822F480621A605D
:1017CC007B681B681A697B685B6AD2B21A707B688B
:1017DC005B6A5A1C7B685A627B685B8D9BB2013BCF
:1017EC009AB27B685A8595E07B685B8D9BB2022B25
:1017FC007DD1FB68012B02D0FB68102B08D17B68D4
:10180C001B681A687B681B6822F480621A6016E0F9
:10181C00FB68042B02D0FB68022B08D17B681B6889
:10182C001A687B681B6842F480621A6007E07B6868
:10183C001B681A687B681B6842F400721A607B682C
:10184C001B681A697B685B6AD2B21A707B685B6A28
:10185C005A1C7B685A627B685B8D9BB2013B9AB2C7
:10186C007B685A857B681B681A697B685B6AD2B295
:10187C001A707B685B6A5A1C7B685A627B685B8D4A
:10188C009BB2013B9AB27B685A857B681B685A688D
:10189C007B681B6822F440725A607B68202283F8B4
:1018AC003D207B6893F83E30DBB2402B0AD17B683D
:1018BC00002283F83E207B6800221A637868FFF7C9
:1018CC00A2FC27E07B68002283F83E20FB68082BF3
:1018DC0002D0FB68202B03D17B6800221A6302E044
:1018EC007B6812221A637868FFF753FC12E07B685E
:1018FC001B681A697B685B6AD2B21A707B685B6A78
:10190C005A1C7B685A627B685B8D9BB2013B9AB216
:10191C007B685A8500BF1037BD4680BD80B483B04C
:10192C0000AF78607B6893F83E30DBB2402B17D168
:10193C007B681B6D002B09D17B685B6CDBB21A4694
:10194C007B681B6802F0FE021A6167E07B685B6CC7
:10195C00DBB243F00103DAB27B681B681A615DE00D
:10196C007B681B69B3F5804F33D17B6893F83D30AE
:10197C00DBB2212B09D17B685B6CDBB21A467B682E
:10198C001B6802F0FE021A6108E07B685B6CDBB23C
:10199C0043F00103DAB27B681B681A617B685B6BEE
:1019AC00002B04D07B685B6B9B6A002B08D17B6897
:1019BC009B6B002B32D07B689B6B9B6A002B2DD0D2
:1019CC007B681B685A687B681B6842F400625A602B
:1019DC0024E07B681B6D002B0ED17B685B6C9BB28B
:1019EC00DB11DBB203F00603DBB263F00F03DAB2F8
:1019FC007B681B681A6111E07B681B6D012B0DD194
:101A0C007B685B6C9BB2DB11DBB203F00603DBB2D1
:101A1C0063F00E03DAB27B681B681A6100BF0C37E7
:101A2C00BD4680BC704780B483B000AF78607B68E3
:101A3C005B6CDAB27B681B681A617B685B6B002B92
:101A4C0004D07B685B6B9B6A002B08D17B689B6B1B
:101A5C00002B0CD07B689B6B9B6A002B07D07B68A0
:101A6C001B685A687B681B6842F400625A6000BFAE
:101A7C000C37BD4680BC704780B491B000AF786025
:101A8C007B6893F83E3087F83F307B68DB6ABB633A
:101A9C007B681B6B7B637B6893F83D30DBB2222B3E
:101AAC0040F074817B681B6D002B0FD197F83F3091
:101ABC00402B0BD100233B637B681B685B693B634A
:101ACC007B681B689B693B633B6B6BE17B681B6DA5
:101ADC00002B1DD17B681B69B3F5404F18D1002337
:101AEC00FB627B681B685B69FB627B681B689B699C
:101AFC00FB62FB6A7B681B681A687B681B6842F494
:101B0C0080721A607B681B6D5A1C7B681A6549E1F0
:101B1C007B685B8D9BB2002B13D10023BB627B686F
:101B2C001B685B69BB627B681B689B69BB62BB6A99
:101B3C007B681B681A687B681B6842F400721A6029
:101B4C0020E17B685B8D9BB2012B40F08A80BB6BE4
:101B5C0013F5803F37D17B681B681A687B681B685C
:101B6C0022F480621A607B681B685B6803F4006374
:101B7C00B3F5006F13D17B681B681A687B681B6810
:101B8C0022F480621A6000237B627B681B685B69AD
:101B9C007B627B681B689B697B627B6AF2E000233B
:101BAC003B627B681B685B693B627B681B689B695B
:101BBC003B623B6A7B681B681A687B681B6842F453
:101BCC0000721A60DEE0BB6B082B2ED0BB6B202B97
:101BDC002BD07B6B122B02D1BB6B012B25D1BB6B9A
:101BEC00042B0ED0BB6B022B0BD0BB6B102B08D075
:101BFC007B681B681A687B681B6822F480621A6019
:101C0C0007E07B681B681A687B681B6842F480627B
:101C1C001A600023FB617B681B685B69FB617B6856
:101C2C001B689B69FB61FB69ACE07B681B681A68ED
:101C3C007B681B6822F480621A600023BB617B689E
:101C4C001B685B69BB617B681B689B69BB61BB697B
:101C5C007B681B681A687B681B6842F400721A6008
:101C6C0090E07B685B8D9BB2022B58D1BB6B042B35
:101C7C0021D0BB6B022B1ED0BB6B102B1BD07B68F7
:101C8C001B681A687B681B6842F400621A600023A8
:101C9C007B617B681B685B697B617B681B689B69EC
:101CAC007B617B697B681B681A687B681B6822F404
:101CBC0080621A6012E07B681B681A687B681B687C
:101CCC0042F480621A6000233B617B681B685B698D
:101CDC003B617B681B689B693B613B697B681B684C
:101CEC005B6803F40063B3F5006F4BD1BB6B13F56A
:101CFC00803F0BD0BB6B012B08D0BB6B082B05D0E6
:101D0C00BB6B102B02D0BB6B202B3BD17B681B68B1
:101D1C005A687B681B6842F480525A6032E07B68D8
:101D2C001B681A687B681B6842F480621A607B68C7
:101D3C001B685B6803F40063B3F5006F17D1BB6BD2
:101D4C0013F5803F0BD0BB6B012B08D0BB6B082B62
:101D5C0005D0BB6B102B02D0BB6B202B07D17B6843
:101D6C001B685A687B681B6842F480525A600023D7
:101D7C00FB607B681B685B69FB607B681B689B690D
:101D8C00FB60FB687B6800221A650BE00023BB60DC
:101D9C007B681B685B69BB607B681B689B69BB606D
:101DAC00BB68FFE700BF4437BD4680BC704780B5B9
:101DBC0084B000AF78607B6893F83D30FB737B6830
:101DCC005B8D9BB2002B2BD07B685B6A1A787B688F
:101DDC001B681A617B685B6A5A1C7B685A627B6859
:101DEC005B8D9BB2013B9AB27B685A857B685B8D9D
:101DFC009BB2002B14D1FB7B292B11D17B681B6868
:101E0C005A687B681B6822F480625A607B682122C6
:101E1C001A637B68282283F83D207868FFF7C2F9A3
:101E2C0000BF1037BD4680BD80B483B000AF786072
:101E3C007B685B8D9BB2002B11D07B685B6A1A7838
:101E4C007B681B681A617B685B6A5A1C7B685A62E8
:101E5C007B685B8D9BB2013B9AB27B685A8500BF55
:101E6C000C37BD4680BC704780B584B000AF78603D
:101E7C007B6893F83D30FB737B685B8D9BB2002BCA
:101E8C002CD07B681B681A697B685B6AD2B21A70AB
:101E9C007B685B6A5A1C7B685A627B685B8D9BB261
:101EAC00013B9AB27B685A857B685B8D9BB2002B99
:101EBC0014D1FB7B2A2B11D17B681B685A687B6879
:101ECC001B6822F480625A607B6822221A637B684A
:101EDC00282283F83D207868FFF76DF900BF103792
:101EEC00BD4680BD80B483B000AF78607B685B8DED
:101EFC009BB2002B12D07B681B681A697B685B6AEB
:101F0C00D2B21A707B685B6A5A1C7B685A627B6817
:101F1C005B8D9BB2013B9AB27B685A8500BF0C3734
:101F2C00BD4680BC704780B584B000AF7860396026
:101F3C000023FB737B6893F83D30DBB203F028037E
:101F4C00282B27D17B681B685A687B681B6822F496
:101F5C0080625A603B689B0803F00103002B01D19F
:101F6C000123FB733B68DB0903F00103002B03D156
:101F7C007B68DB68BB8102E07B689B69BB817B680B
:101F8C00002283F83C20BA89FB7B19467868FFF75E
:101F9C001BF90EE00023BB607B681B685B69BB60B0
:101FAC007B681B689B69BB60BB687B68002283F8FD
:101FBC003C2000BF1037BD4680BD000080B584B00A
:101FCC0000AF78607B6893F83D30FB737B681B68CF
:101FDC005A687B681B6822F4E0625A600023BB607D
:101FEC007B681B685B69BB607B681B681A687B68D5
:101FFC001B6842F001021A60BB687B681B681A6898
:10200C007B681B6822F480621A607B681B685B68C3
:10201C0003F40063B3F5006F72D1FB7B222B02D06B
:10202C00FB7B2A2B35D17B689B6B1B685B689AB258
:10203C007B685A857B685B8D9BB2002B05D07B68D7
:10204C001B6C43F004027B681A647B681B685A683B
:10205C007B681B6822F400625A607B689B6B184695
:10206C0001F03AFE0346012B49D07B689B6B694A11
:10207C005A637B689B6B184601F0B0FC0346002B3F
:10208C003DD07B689B6B5B6B7A68926B1046984774
:10209C0035E07B685B6B1B685B689AB27B685A8522
:1020AC007B685B8D9BB2002B05D07B681B6C43F06F
:1020BC0004027B681A647B681B685A687B681B681F
:1020CC0022F400625A607B685B6B184601F004FED8
:1020DC000346012B14D07B685B6B4E4A5A637B68BA
:1020EC005B6B184601F07AFC0346002B08D07B682A
:1020FC005B6B5B6B7A68526B1046984700E000BFD5
:10210C007B685B8D9BB2002B3ED07B681B685B6948
:10211C0003F00403042B12D17B681B681A697B68DB
:10212C005B6AD2B21A707B685B6A5A1C7B685A6213
:10213C007B685B8D9BB2013B9AB27B685A857B684E
:10214C001B685B6903F04003402B12D17B681B6852
:10215C001A697B685B6AD2B21A707B685B6A5A1C1C
:10216C007B685A627B685B8D9BB2013B9AB27B6841
:10217C005A857B685B8D9BB2002B05D07B681B6CF2
:10218C0043F004027B681A647B681B6C002B03D041
:10219C00786800F0B7F839E0FB7B2A2B09D17B6813
:1021AC0000221A637B68282283F83D207868FFF7A9
:1021BC0002F87B6893F83D30DBB2282B11D17B6899
:1021CC00154ADA627B6800221A637B68202283F846
:1021DC003D207B68002283F83E207868FFF701F8E9
:1021EC0014E07B681B6B222B02D0FB7B222B0DD1C6
:1021FC007B6800221A637B68202283F83D207B6871
:10220C00002283F83E207868FEF7D5FF00BF103718
:10221C00BD4680BD452700080000FFFF80B584B097
:10222C0000AF78607B6893F83D30FB737B68DB6AAA
:10223C00BB60BB68082B02D0BB68202B29D1FB7B71
:10224C00282B26D17B682E4ADA627B681B685A6879
:10225C007B681B6822F4E0625A607B681B686FF431
:10226C0080625A617B681B681A687B681B6822F461
:10227C0080621A607B6800221A637B68202283F8D4
:10228C003D207B68002283F83E207868FEF7A9FF8A
:10229C0031E0FB7B212B29D17B68194ADA627B6800
:1022AC0021221A637B68202283F83D207B68002260
:1022BC0083F83E207B681B685A687B681B6822F495
:1022CC00E0625A607B681B686FF480625A617B68BD
:1022DC001B681A687B681B6822F480621A60786835
:1022EC00FEF7A6FA7868FEF75DFF04E07B681B68D2
:1022FC006FF480625A6100BF1037BD4680BD00BFCD
:10230C000000FFFF80B584B000AF78607B6893F865
:10231C003D30FB737B6893F83E30BB73BB7B102B5B
:10232C0002D0BB7B402B0AD1FB7B222B07D17B68D5
:10233C001B681A687B681B6822F400621A60FB7BBE
:10234C0003F02803282B07D17B6800221A637B68D3
:10235C00282283F83D2015E07B681B685B6803F43A
:10236C000063B3F5006F0AD0FB7B602B07D07B6852
:10237C00202283F83D207B68002283F83E207B6876
:10238C0000221A637B681B685B6803F40063B3F577
:10239C00006F62D17B681B685A687B681B6822F4EB
:1023AC0000625A607B685B6B93F82130DBB2012BC7
:1023BC0020D07B685B6B6A4A5A637B685B6B184600
:1023CC0001F00CFB0346002B00F089807B681B6836
:1023DC001A687B681B6822F001021A607B68202255
:1023EC0083F83D207B685B6B5B6B7A68526B1046A5
:1023FC00984774E07B689B6B594A5A637B689B6B6C
:10240C00184601F0EBFA0346002B68D07B681B687A
:10241C005B6903F04003402B0BD17B681B681A6986
:10242C007B685B6AD2B21A707B685B6A5A1C7B68E9
:10243C005A627B681B681A687B681B6822F0010271
:10244C001A607B68202283F83D207B689B6B5B6B5A
:10245C007A68926B1046984741E07B6893F83D3060
:10246C00DBB2602B25D17B68202283F83D207B6872
:10247C0000221A647B681B685B6903F04003402BE5
:10248C000BD17B681B681A697B685B6AD2B21A70C5
:10249C007B685B6A5A1C7B685A627B681B681A688B
:1024AC007B681B6822F001021A607868FEF7BDFE9B
:1024BC0015E07B681B685B6903F04003402B0BD174
:1024CC007B681B681A697B685B6AD2B21A707B687E
:1024DC005B6A5A1C7B685A627868FEF79DFE7B68C3
:1024EC001B6CBB60BB6803F00103002B0ED1BB68F7
:1024FC0003F00203002B09D1BB6803F00403002B8B
:10250C0004D1BB6803F00803002B07D07B681B6861
:10251C005A687B681B6822F4E0625A607B6893F807
:10252C003D30FB737B681B6C03F00403042B13D14D
:10253C00FB7B282B10D17B680A4ADA627B6800226D
:10254C001A637B68202283F83D207B68002283F885
:10255C003E207868FEF745FE00BF1037BD4680BDB3
:10256C00452700080000FFFF80B588B002AFF86077
:10257C00084611461A4603467B810B463B8113469F
:10258C00FB80FB681B681A68FB681B6842F480625E
:10259C001A60FB681B681A68FB681B6842F480723F
:1025AC001A607B6A00933B6A00224FF00111F868B5
:1025BC0000F06AF90346002B0DD0FB681B681B6802
:1025CC0003F48073B3F5807F03D1FB684FF4007282
:1025DC001A640323AAE07B89DBB21A46FB681B68EA
:1025EC0002F0FE021A617B6A3A6A5249F86800F0FE
:1025FC00C5F90346002B01D0012397E000237B6132
:10260C00FB681B685B697B61FB681B689B697B6172
:10261C007B697A6A396AF86800F050FA0346002B35
:10262C000DD0FB681B6C042B07D1FB681B681A6868
:10263C00FB681B6842F400721A60012376E0FB8889
:10264C00012B05D13B89DAB2FB681B681A6121E0CA
:10265C003B891B0A9BB2DAB2FB681B681A617A6A67
:10266C00396AF86800F02AFA0346002B0DD0FB6893
:10267C001B6C042B07D1FB681B681A68FB681B6872
:10268C0042F400721A60012350E03B89DAB2FB6815
:10269C001B681A617A6A396AF86800F00FFA034607
:1026AC00002B0DD0FB681B6C042B07D1FB681B683F
:1026BC001A68FB681B6842F400721A60012335E04B
:1026CC00FB681B681A68FB681B6842F480721A600E
:1026DC007B6A00933B6A00224FF00111F86800F00E
:1026EC00D3F80346002B0DD0FB681B681B6803F462
:1026FC008073B3F5807F03D1FB684FF400721A64CA
:10270C00032313E07B89DBB243F00103DAB2FB68ED
:10271C001B681A617B6A3A6A0649F86800F02EF960
:10272C000346002B01D0012300E000231846183784
:10273C00BD4680BD0200010080B586B000AF786058
:10274C000023FB607B685B6A7B617B6993F83D309F
:10275C00FB744B4B1B68DB084A4AA2FB03231A0A87
:10276C0013469B001344DA00D31AFB60FB68002B62
:10277C0006D17B691B6C43F020027B691A640AE06A
:10278C00FB68013BFB607B691B681B6803F40073EF
:10279C00B3F5007FEAD07B695B6B002B03D07B69C0
:1027AC005B6B00229A627B699B6B002B03D07B696D
:1027BC009B6B00229A627B691B681A687B691B6899
:1027CC0022F480621A607B6900225A857B695B6BFC
:1027DC00002B03D07B695B6B00225A637B699B6B7C
:1027EC00002B03D07B699B6B00225A637B691B68AF
:1027FC001A687B691B6822F001021A607B6993F8E6
:10280C003D30DBB2602B0ED17B69202283F83D205A
:10281C007B69002283F83E207B6900221A64786968
:10282C00FEF703FD27E0FB7C03F02803282B17D1D0
:10283C007B691B681A687B691B6842F001021A608D
:10284C007B691B681A687B691B6842F480621A609A
:10285C007B6900221A637B69282283F83D2007E0FC
:10286C007B69202283F83D207B69002283F83E207F
:10287C007869FEF7D1FC00BF1837BD4680BD00BF9C
:10288C000800002089B5F81480B584B000AFF8605A
:10289C00B9603B601346FB7148E03B68B3F1FF3F06
:1028AC0044D000F083FA0246BB69D31A3A689A42C4
:1028BC0002D33B68002B39D1BB681B0CDBB2012B5C
:1028CC000DD1FB681B685B69DA43BB6813409BB294
:1028DC00002B0CBF01230023DBB21A460CE0FB6873
:1028EC001B689B69DA43BB6813409BB2002B0CBF7F
:1028FC0001230023DBB21A46FB799A4216D1FB68FE
:10290C0000221A63FB68202283F83D20FB6800221A
:10291C0083F83E20FB681B6C43F02002FB681A64B2
:10292C00FB68002283F83C20012323E0BB681B0CCE
:10293C00DBB2012B0DD1FB681B685B69DA43BB680A
:10294C0013409BB2002B0CBF01230023DBB21A46B1
:10295C000CE0FB681B689B69DA43BB6813409BB2B5
:10296C00002B0CBF01230023DBB21A46FB799A42E1
:10297C0093D0002318461037BD4680BD80B584B077
:10298C0000AFF860B9607A603B6071E0FB681B686F
:10299C005B6903F48063B3F5806F23D1FB681B681C
:1029AC001A68FB681B6842F400721A60FB681B68AB
:1029BC006FF480625A61FB6800221A63FB68202264
:1029CC0083F83D20FB68002283F83E20FB681B6CDB
:1029DC0043F00402FB681A64FB68002283F83C2075
:1029EC00012367E07B68B3F1FF3F41D000F0DEF9D3
:1029FC0002463B68D31A7A689A4202D37B68002B52
:102A0C0036D1BB681B0CDBB2012B0CD1FB681B68ED
:102A1C005B69DA43BB6813409BB2002B14BF0123E4
:102A2C000023DBB20BE0FB681B689B69DA43BB68D5
:102A3C0013409BB2002B14BF01230023DBB2002BED
:102A4C0016D0FB6800221A63FB68202283F83D2015
:102A5C00FB68002283F83E20FB681B6C43F02002CD
:102A6C00FB681A64FB68002283F83C20012321E0F8
:102A7C00BB681B0CDBB2012B0CD1FB681B685B69C0
:102A8C00DA43BB6813409BB2002B14BF0123002315
:102A9C00DBB20BE0FB681B689B69DA43BB68134035
:102AAC009BB2002B14BF01230023DBB2002B7FF45D
:102ABC006DAF002318461037BD4680BD80B584B07D
:102ACC0000AFF860B9607A6034E0F86800F0CDF8D7
:102ADC000346002B01D0012334E0BB68B3F1FF3F68
:102AEC0028D000F063F902467B68D31ABA689A4280
:102AFC0002D3BB68002B1DD1FB681B685B6903F01C
:102B0C008003802B16D0FB6800221A63FB682022FE
:102B1C0083F83D20FB68002283F83E20FB681B6C89
:102B2C0043F02002FB681A64FB68002283F83C2007
:102B3C00012307E0FB681B685B6903F08003802BB3
:102B4C00C3D1002318461037BD4680BD80B485B074
:102B5C0000AF78600023FB60134B1B68DB08134A43
:102B6C00A2FB03231A0A13469B001344FB60FB6869
:102B7C00013BFB60FB68002B07D17B681B6C43F0AF
:102B8C0020027B681A64012308E07B681B681B68C1
:102B9C0003F40073B3F5007FE9D000231846143713
:102BAC00BD4680BC704700BF0800002089B5F814F2
:102BBC0080B584B000AFF860B9607A6049E0FB681A
:102BCC001B685B6903F01003102B19D1FB681B68A1
:102BDC006FF010025A61FB6800221A63FB68202216
:102BEC0083F83D20FB68002283F83E20FB681A6CBA
:102BFC00FB681A64FB68002283F83C20012330E058
:102C0C0000F0D4F802467B68D31ABA689A4202D311
:102C1C00BB68002B1DD1FB681B685B6903F040038C
:102C2C00402B16D0FB6800221A63FB68202283F825
:102C3C003D20FB68002283F83E20FB681B6C43F0B0
:102C4C002002FB681A64FB68002283F83C200123F5
:102C5C0007E0FB681B685B6903F04003402BAED1B7
:102C6C00002318461037BD4680BD80B483B000AF3A
:102C7C0078607B681B685B6903F48063B3F5806FD5
:102C8C001BD17B681B686FF480625A617B680022E1
:102C9C001A637B68202283F83D207B68002283F82E
:102CAC003E207B681B6C43F004027B681A647B68D3
:102CBC00002283F83C20012300E0002318460C3747
:102CCC00BD4680BC704780B483B000AF78607B6831
:102CDC00DB6AB3F52A0F03D17B680122DA6207E0C5
:102CEC007B68DB6AB3F12A4F02D17B680822DA6277
:102CFC0000BF0C37BD4680BC7047000080B500AFEC
:102D0C00084B1B68074A43F010031360032001F0C3
:102D1C00BDF80F2000F008F8FDF714FC002318464E
:102D2C0080BD00BF0020024080B582B000AF78604B
:102D3C00124B1A68124B1B7819464FF47A73B3FB7B
:102D4C00F1F3B2FBF3F3184601F0D5F80346002B70
:102D5C0001D001230EE07B680F2B0AD80022796882
:102D6C004FF0FF3001F09DF8064A7B68136000239A
:102D7C0000E0012318460837BD4680BD080000203E
:102D8C00040000200000002080B400AF054B1B782D
:102D9C001A46054B1B681344034A136000BFBD461B
:102DAC0080BC7047040000200401002080B400AFF8
:102DBC00024B1B681846BD4680BC704704010020BE
:102DCC0080B584B000AF7860FFF7F0FFB8607B6827
:102DDC00FB60FB68B3F1FF3F05D00A4B1B781A462A
:102DEC00FB681344FB6000BFFFF7E0FF0246BB68C3
:102DFC00D31AFA689A42F7D800BF00BF1037BD4605
:102E0C0080BD00BF0400002080B586B000AF7860A4
:102E1C007B68002B01D1012372E27B681B6803F0F5
:102E2C000103002B00F08780924B5B6803F00C03CE
:102E3C00042B0CD08F4B5B6803F00C03082B12D1C6
:102E4C008C4B5B6803F48033B3F5803F0BD1894B1B
:102E5C001B6803F40033002B6CD07B685B68002B81
:102E6C0068D101234CE27B685B68B3F5803F06D1E7
:102E7C00804B1B687F4A43F4803313602EE07B68E1
:102E8C005B68002B0CD17B4B1B687A4A23F4803394
:102E9C001360784B1B68774A23F4802313601DE082
:102EAC007B685B68B3F5A02F0CD1724B1B68714A21
:102EBC0043F4802313606F4B1B686E4A43F48033DA
:102ECC0013600BE06B4B1B686A4A23F4803313606E
:102EDC00684B1B68674A23F4802313607B685B682C
:102EEC00002B13D0FFF762FF386108E0FFF75EFF9D
:102EFC0002463B69D31A642B01D9032300E25D4BD4
:102F0C001B6803F40033002BF0D014E0FFF74EFFE6
:102F1C00386108E0FFF74AFF02463B69D31A642B7D
:102F2C0001D90323ECE1534B1B6803F40033002B52
:102F3C00F0D100E000BF7B681B6803F00203002B9C
:102F4C0063D04C4B5B6803F00C03002B0BD0494B4C
:102F5C005B6803F00C03082B1CD1464B5B6803F435
:102F6C008033002B16D1434B1B6803F00203002B5C
:102F7C0005D07B681B69012B01D00123C0E13D4BBF
:102F8C001B6823F0F8027B685B69DB00394913434B
:102F9C000B603AE07B681B69002B20D0364B01227A
:102FAC001A60FFF703FF386108E0FFF7FFFE0246E7
:102FBC003B69D31A022B01D90323A1E12D4B1B68CA
:102FCC0003F00203002BF0D02A4B1B6823F0F8020D
:102FDC007B685B69DB00274913430B6015E0264BCC
:102FEC0000221A60FFF7E2FE386108E0FFF7DEFE10
:102FFC0002463B69D31A022B01D9032380E11D4BF6
:10300C001B6803F00203002BF0D17B681B6803F0F4
:10301C000803002B3AD07B689B69002B19D0174B07
:10302C0001221A60FFF7C2FE386108E0FFF7BEFE0E
:10303C0002463B69D31A022B01D9032360E10D4BE5
:10304C005B6A03F00203002BF0D0012000F0BAFA07
:10305C001CE00A4B00221A60FFF7A8FE38610FE053
:10306C00FFF7A4FE02463B69D31A022B08D90323AF
:10307C0046E100BF00100240000042428004424280
:10308C00924B5B6A03F00203002BE9D17B681B684F
:10309C0003F00403002B00F0A6800023FB758B4B80
:1030AC00DB6903F08053002B0DD1884BDB69874A19
:1030BC0043F08053D361854BDB6903F08053BB60D5
:1030CC00BB680123FB75824B1B6803F48073002BD8
:1030DC0018D17F4B1B687E4A43F480731360FFF753
:1030EC0065FE386108E0FFF761FE02463B69D31AC2
:1030FC00642B01D9032303E1754B1B6803F4807324
:10310C00002BF0D07B68DB68012B06D16F4B1B6A60
:10311C006E4A43F0010313622DE07B68DB68002BE1
:10312C000CD16A4B1B6A694A23F001031362674B8B
:10313C001B6A664A23F0040313621CE07B68DB689D
:10314C00052B0CD1614B1B6A604A43F004031362DC
:10315C005E4B1B6A5D4A43F0010313620BE05B4B51
:10316C001B6A5A4A23F001031362584B1B6A574AD5
:10317C0023F0040313627B68DB68002B15D0FFF788
:10318C0015FE38610AE0FFF711FE02463B69D31ABF
:10319C0041F28832934201D90323B1E04B4B1B6AB5
:1031AC0003F00203002BEED014E0FFF7FFFD3861B3
:1031BC000AE0FFF7FBFD02463B69D31A41F2883265
:1031CC00934201D903239BE0404B1B6A03F002039B
:1031DC00002BEED1FB7D012B05D13C4BDB693B4A2F
:1031EC0023F08053D3617B68DB69002B00F0878070
:1031FC00364B5B6803F00C03082B61D07B68DB69F2
:10320C00022B46D1334B00221A60FFF7CFFD3861F9
:10321C0008E0FFF7CBFD02463B69D31A022B01D91C
:10322C0003236DE0294B1B6803F00073002BF0D1D6
:10323C007B681B6AB3F5803F08D1244B5B6823F491
:10324C0000327B689B68214913434B601F4B5B68C2
:10325C0023F474127B68196A7B685B6A0B431B4905
:10326C0013434B601B4B01221A60FFF79FFD386123
:10327C0008E0FFF79BFD02463B69D31A022B01D9EC
:10328C0003233DE0114B1B6803F00073002BF0D0BF
:10329C0035E0104B00221A60FFF788FD386108E01A
:1032AC00FFF784FD02463B69D31A022B01D9032395
:1032BC0026E0064B1B6803F00073002BF0D11EE0D8
:1032CC007B68DB69012B07D1012319E00010024058
:1032DC0000700040600042420B4B5B68FB60FB6877
:1032EC0003F480327B681B6A9A4206D1FB6803F4B4
:1032FC0070127B685B6A9A4201D0012300E00023C4
:10330C0018461837BD4680BD0010024080B584B009
:10331C0000AF786039607B68002B01D10123D0E0CD
:10332C006A4B1B6803F007033A689A4210D9674B43
:10333C001B6823F0070265493B6813430B60634B22
:10334C001B6803F007033A689A4201D00123B8E0E6
:10335C007B681B6803F00203002B20D07B681B6882
:10336C0003F00403002B05D0594B5B68584A43F417
:10337C00E06353607B681B6803F00803002B05D0E7
:10338C00534B5B68524A43F460535360504B5B6839
:10339C0023F0F0027B689B684D4913434B607B68BC
:1033AC001B6803F00103002B40D07B685B68012B8A
:1033BC0007D1474B1B6803F40033002B15D10123B5
:1033CC007FE07B685B68022B07D1414B1B6803F0E5
:1033DC000073002B09D1012373E03D4B1B6803F0F4
:1033EC000203002B01D101236BE0394B5B6823F006
:1033FC0003027B685B68364913434B60FFF7D6FCCE
:10340C00F8600AE0FFF7D2FC0246FB68D31A41F2DF
:10341C008832934201D9032353E02D4B5B6803F0B0
:10342C000C027B685B689B009A42EBD1274B1B68B4
:10343C0003F007033A689A4210D2244B1B6823F01E
:10344C00070222493B6813430B60204B1B6803F0B7
:10345C0007033A689A4201D0012332E07B681B686B
:10346C0003F00403002B08D0194B5B6823F4E062D3
:10347C007B68DB68164913434B607B681B6803F061
:10348C000803002B09D0124B5B6823F460527B6855
:10349C001B69DB000E4913434B6000F021F8024618
:1034AC000B4B5B681B0903F00F030A49CB5C22FA38
:1034BC0003F3094A1360094B1B681846FFF734FCE9
:1034CC00002318461037BD4680BD00BF00200240C7
:1034DC0000100240F83F0008080000200000002007
:1034EC0080B487B000AF0023FB600023BB600023D7
:1034FC007B6100237B6000233B611E4B5B68FB60A0
:10350C00FB6803F00C03042B02D0082B03D027E03C
:10351C00194B3B6127E0FB689B0C03F00F03174A28
:10352C00D35C7B60FB6803F48033002B10D0114B11
:10353C005B685B0C03F00103114AD35CBB607B68D6
:10354C000D4A03FB02F2BB68B2FBF3F37B6104E0B0
:10355C007B680C4A02FB03F37B617B693B6102E0F5
:10356C00054B3B6100BF3B6918461C37BD4680BC10
:10357C00704700BF0010024000127A00E43F0008C0
:10358C00F43F000800093D0080B400AF024B1B68FB
:10359C001846BD4680BC70470800002080B500AFBF
:1035AC00FFF7F2FF0246054B5B681B0A03F00703AB
:1035BC000349CB5C22FA03F3184680BD001002408D
:1035CC000840000880B485B000AF78600A4B1B68D7
:1035DC000A4AA2FB03235B0A7A6802FB03F3FB6033
:1035EC0000BFFB685A1EFA60002BF9D100BF00BF68
:1035FC001437BD4680BC704708000020D34D6210C4
:10360C0080B48BB000AF7860396000237B620023FC
:10361C003B6261E101227B6A02FA03F3FB613B68C6
:10362C001B68FA691340BB61BA69FB699A4240F0A6
:10363C0050813B685B68974A93425ED0954A9342AF
:10364C0075D8954A934258D0934A93426FD8934A6F
:10365C00934252D0914A934269D8914A93424CD0AA
:10366C008F4A934263D88F4A934246D08D4A9342F5
:10367C005DD8122B2AD8122B59D801A252F823F05C
:10368C0007370008E1360008F33600083537000824
:10369C003B3700083B3700083B3700083B37000836
:1036AC003B3700083B3700083B3700083B37000826
:1036BC003B3700083B3700083B3700083B37000816
:1036CC003B370008E9360008FD360008764A93427D
:1036DC0013D02CE03B68DB683B6229E03B68DB687D
:1036EC0004333B6224E03B68DB6808333B621FE039
:1036FC003B68DB680C333B621AE03B689B68002B31
:10370C0002D104233B6213E03B689B68012B05D17B
:10371C0008233B627B68FA691A6109E008233B6263
:10372C007B68FA695A6103E000233B6200E000BF4A
:10373C00BB69FF2B01D87B6801E07B6804337B619C
:10374C00BB69FF2B02D87B6A9B0002E07B6A083BBB
:10375C009B003B617B691A680F213B6901FA03F3FB
:10376C00DB431A40396A3B6901FA03F31A437B695C
:10377C001A603B685B6803F08053002B00F0A98053
:10378C004A4B9B69494A43F001039361474B9B6940
:10379C0003F00103BB60BB68454A7B6A9B0802339C
:1037AC0052F82330FB607B6A03F003039B000F226B
:1037BC0002FA03F3DB43FA681340FB607B683D4A73
:1037CC0093420DD07B683C4A934207D07B683B4ABE
:1037DC00934201D1022304E0032302E0012300E021
:1037EC0000237A6A02F0030292009340FA681343B2
:1037FC00FB602F497B6A9B080233FA6841F823204F
:10380C003B685B6803F48013002B06D02C4B9A6842
:10381C002B49BB6913438B6006E0294B9A68BB6943
:10382C00DB43274913408B603B685B6803F4001350
:10383C00002B06D0224BDA682149BB691343CB60BD
:10384C0006E01F4BDA68BB69DB431D491340CB60B4
:10385C003B685B6803F40033002B06D0184B5A68A6
:10386C001749BB6913434B6006E0154B5A68BB699B
:10387C00DB43134913404B603B685B6803F48033B4
:10388C00002B1FD00E4B1A680D49BB6913430B60FC
:10389C001FE000BF000032100000311000002210A9
:1038AC000000211000001210000011100010024046
:1038BC000000014000080140000C014000100140D4
:1038CC00000401400B4B1A68BB69DB4309491340E8
:1038DC000B607B6A01337B623B681A687B6A22FA55
:1038EC0003F3002B7FF496AE00BF00BF2C37BD4610
:1038FC0080BC70470004014080B483B000AF786096
:10390C000B467B8013467B707B78002B03D07A8828
:10391C007B681A6103E07B881A047B681A6100BF1C
:10392C000C37BD4680BC704780B485B000AF786062
:10393C000023FB607B68002B01D1012343E07B68F3
:10394C001B681A46224B1344224AA2FB03231B0971
:10395C009A007B681A647B681F4ADA637B680222D0
:10396C0083F821207B681B681B68FB60FB6823F4D1
:10397C007F5323F03003FB607B685A687B689B683D
:10398C001A437B68DB681A437B681B691A437B68A4
:10399C005B691A437B689B691A437B68DB69134339
:1039AC00FA681343FB607B681B68FA681A607B68D3
:1039BC0000229A637B68012283F821207B68002215
:1039CC0083F82020002318461437BD4680BC70476E
:1039DC00F8FFFDBFCDCCCCCC0000024080B584B04C
:1039EC0000AF78600023FB737B6893F82130DBB267
:1039FC00022B05D07B6804229A630123FB7351E0F0
:103A0C007B681B681A687B681B6822F00E021A60C0
:103A1C007B681B681A687B681B6822F001021A60BD
:103A2C007B681B68224A934229D07B681B68214A19
:103A3C00934222D07B681B681F4A93421AD07B6842
:103A4C001B681E4A934212D07B681B681C4A934227
:103A5C000AD07B681B681B4A934202D14FF4801337
:103A6C000EE04FF080730BE04FF4803308E04FF41E
:103A7C00805305E04FF4807302E0102300E0012333
:103A8C00114A53607B68012283F821207B68002255
:103A9C0083F820207B685B6B002B03D07B685B6B0F
:103AAC0078689847FB7B18461037BD4680BD00BF31
:103ABC00080002401C00024030000240440002405A
:103ACC00580002406C0002400000024080B584B0F7
:103ADC0000AF78607B68DB6B1B68FB607B681B68E6
:103AEC001B68BB607B681B6C04229A40FB6813400C
:103AFC00002B4FD0BB6803F00403002B4AD07B682B
:103B0C001B681B6803F02003002B07D17B681B6824
:103B1C001A687B681B6822F004021A607B681B68B9
:103B2C00664A934229D07B681B68654A934222D02F
:103B3C007B681B68634A93421AD07B681B68624A95
:103B4C00934212D07B681B68604A93420AD07B6810
:103B5C001B685F4A934202D14FF480030EE04FF092
:103B6C0080630BE04FF4802308E04FF4804305E0C2
:103B7C004FF4806302E0402300E00423554A536075
:103B8C007B68DB6A002B00F094807B68DB6A7868CA
:103B9C0098478EE07B681B6C02229A40FB681340AE
:103BAC00002B56D0BB6803F00203002B51D07B686E
:103BBC001B681B6803F02003002B0BD17B681B6870
:103BCC001A687B681B6822F00A021A607B68012263
:103BDC0083F821207B681B68384A934229D07B6884
:103BEC001B68374A934222D07B681B68354A934244
:103BFC001AD07B681B68344A934212D07B681B68CE
:103C0C00324A93420AD07B681B68314A934202D1F4
:103C1C004FF400130EE04FF000730BE04FF4003341
:103C2C0008E04FF4005305E04FF4007302E020234A
:103C3C0000E00223274A53607B68002283F820208F
:103C4C007B689B6A002B34D07B689B6A78689847AA
:103C5C002FE07B681B6C08229A40FB681340002BFA
:103C6C0028D0BB6803F00803002B23D07B681B68AB
:103C7C001A687B681B6822F00E021A607B681A6C4B
:103C8C007B68DB6B012101FA02F25A607B6801222E
:103C9C009A637B68012283F821207B68002283F8D9
:103CAC0020207B681B6B002B04D07B681B6B786817
:103CBC00984700BF00BF1037BD4680BD08000240CA
:103CCC001C000240300002404400024058000240F8
:103CDC006C0002400000024080B483B000AF7860FA
:103CEC007B6893F82130DBB218460C37BD4680BC9C
:103CFC007047000080B485B000AF78607B6803F03B
:103D0C000703FB600C4BDB68BB60BA684FF6FF0324
:103D1C001340BB60FB681A02BB68134343F0BF63DC
:103D2C0043F40033BB60044ABB68D36000BF143754
:103D3C00BD4680BC704700BF00ED00E080B400AF12
:103D4C00044BDB681B0A03F007031846BD4680BC16
:103D5C00704700BF00ED00E080B483B000AF0346B5
:103D6C00FB7197F90730002B0BDBFB7903F01F027B
:103D7C00064997F907305B09012000FA02F241F875
:103D8C00232000BF0C37BD4680BC704700E100E02B
:103D9C0080B483B000AF03463960FB7197F90730EC
:103DAC00002B0ADB3B68DAB20C4997F90730120199
:103DBC00D2B20B4483F800230AE03B68DAB208491C
:103DCC00FB7903F00F03043B1201D2B20B441A76B9
:103DDC0000BF0C37BD4680BC704700BF00E100E05F
:103DEC0000ED00E080B489B000AFF860B9607A6093
:103DFC00FB6803F00703FB61FB69C3F10703042BAA
:103E0C0028BF0423BB61FB690433062B02D9FB6971
:103E1C00033B00E000237B614FF0FF32BB6902FAE9
:103E2C0003F3DA43BB681A407B699A404FF0FF31C9
:103E3C007B6901FA03F3D9437B680B4013431846A3
:103E4C002437BD4680BC704780B582B000AF786027
:103E5C007B68013BB3F1807F01D301230FE00A4A59
:103E6C007B68013B53600F214FF0FF30FFF790FF51
:103E7C00054B00229A60044B07221A600023184657
:103E8C000837BD4680BD00BF10E000E080B582B0B1
:103E9C0000AF78607868FFF72DFF00BF0837BD468C
:103EAC0080BD80B586B000AF0346B9607A60FB7305
:103EBC0000237B61FFF742FF78617A68B968786903
:103ECC00FFF790FF024697F90F3011461846FFF79F
:103EDC005FFF00BF1837BD4680BD80B582B000AF14
:103EEC000346FB7197F907301846FFF735FF00BF03
:103EFC000837BD4680BD80B582B000AF7860786869
:103F0C00FFF7A2FF034618460837BD4680BD80B4B4
:103F1C0000AF00BFBD4680BC70470000FFF7F7FF45
:103F2C000B480C490C4A002302E0D458C45004330B
:103F3C00C4188C42F9D3094A094C002301E01360E0
:103F4C000432A242FBD300F017F8FCF7F9F87047E3
:103F5C00000000200C000020184000080C0000207D
:103F6C0008010020FEE703460244934200D170474B
:103F7C0003F8011BF9E7000070B500260C4D0D4B42
:103F8C005B1B9C10A64209D1002600F019F80A4DC3
:103F9C000A4B5B1B9C10A64205D170BD55F8043B27
:103FAC0098470136EEE755F8043B98470136F2E79F
:103FBC001040000810400008104000081440000891
:103FCC00F8B500BFF8BC08BC9E467047F8B500BFFA
:083FDC00F8BC08BC9E467047CA
:103FE40002030405060708090A0B0C0D0E0F101036
:103FF40001020000000000000000000001020304B0
:0C40040006070809000000000102030488
:044010003101000872
:044014000D01000892
:0C401800100000000100000000127A00FF
:0400000508003F2987
:00000001FF
